2020-09-24 11:39:26.070 [main] INFO  com.zmj.ZmjApplication - Starting ZmjApplication on gaihongweideMacBook-Air.local with PID 10997 (/Users/gaihongwei/tools/eclipse/workspace/zmj02/target/classes started by gaihongwei in /Users/gaihongwei/tools/eclipse/workspace/zmj02)
2020-09-24 11:39:26.075 [main] INFO  com.zmj.ZmjApplication - No active profile set, falling back to default profiles: default
2020-09-24 11:39:27.797 [main] WARN  org.mybatis.spring.mapper.ClassPathMapperScanner - Skipping MapperFactoryBean with name 'btcDao' and 'com.zmj.dao.btcd.BtcDao' mapperInterface. Bean already defined with the same name!
2020-09-24 11:39:27.798 [main] WARN  org.mybatis.spring.mapper.ClassPathMapperScanner - Skipping MapperFactoryBean with name 'tbCurrencyInfoDao' and 'com.zmj.dao.platform.TbCurrencyInfoDao' mapperInterface. Bean already defined with the same name!
2020-09-24 11:39:27.798 [main] WARN  org.mybatis.spring.mapper.ClassPathMapperScanner - Skipping MapperFactoryBean with name 'mainDao' and 'com.zmj.dao.orther.base.MainDao' mapperInterface. Bean already defined with the same name!
2020-09-24 11:39:27.798 [main] WARN  org.mybatis.spring.mapper.ClassPathMapperScanner - Skipping MapperFactoryBean with name 'documentarySmsDao' and 'com.zmj.dao.orther.future.DocumentarySmsDao' mapperInterface. Bean already defined with the same name!
2020-09-24 11:39:27.798 [main] WARN  org.mybatis.spring.mapper.ClassPathMapperScanner - Skipping MapperFactoryBean with name 'fexDao' and 'com.zmj.dao.orther.regular.FexDao' mapperInterface. Bean already defined with the same name!
2020-09-24 11:39:27.798 [main] WARN  org.mybatis.spring.mapper.ClassPathMapperScanner - No MyBatis mapper was found in '[com.zmj.dao]' package. Please check your configuration.
2020-09-24 11:39:28.235 [main] INFO  o.s.d.r.config.RepositoryConfigurationDelegate - Multiple Spring Data modules found, entering strict repository configuration mode!
2020-09-24 11:39:28.245 [main] INFO  o.s.d.r.config.RepositoryConfigurationDelegate - Bootstrapping Spring Data Redis repositories in DEFAULT mode.
2020-09-24 11:39:28.376 [main] INFO  o.s.d.r.config.RepositoryConfigurationDelegate - Finished Spring Data repository scanning in 58ms. Found 0 Redis repository interfaces.
2020-09-24 11:39:30.144 [main] INFO  o.s.boot.web.embedded.tomcat.TomcatWebServer - Tomcat initialized with port(s): 19111 (http)
2020-09-24 11:39:30.173 [main] INFO  org.apache.coyote.http11.Http11NioProtocol - Initializing ProtocolHandler ["http-nio-19111"]
2020-09-24 11:39:30.174 [main] INFO  org.apache.catalina.core.StandardService - Starting service [Tomcat]
2020-09-24 11:39:30.174 [main] INFO  org.apache.catalina.core.StandardEngine - Starting Servlet engine: [Apache Tomcat/9.0.37]
2020-09-24 11:39:30.549 [main] INFO  o.a.c.core.ContainerBase.[Tomcat].[localhost].[/] - Initializing Spring embedded WebApplicationContext
2020-09-24 11:39:30.550 [main] INFO  o.s.b.w.s.c.ServletWebServerApplicationContext - Root WebApplicationContext: initialization completed in 4290 ms
2020-09-24 11:39:32.636 [main] INFO  o.s.scheduling.concurrent.ThreadPoolTaskExecutor - Initializing ExecutorService 'applicationTaskExecutor'
2020-09-24 11:39:32.888 [main] INFO  o.s.b.a.web.servlet.WelcomePageHandlerMapping - Adding welcome page: class path resource [static/index.html]
2020-09-24 11:39:33.949 [main] INFO  org.apache.coyote.http11.Http11NioProtocol - Starting ProtocolHandler ["http-nio-19111"]
2020-09-24 11:39:34.012 [main] INFO  o.s.boot.web.embedded.tomcat.TomcatWebServer - Tomcat started on port(s): 19111 (http) with context path ''
2020-09-24 11:39:34.032 [main] INFO  com.zmj.ZmjApplication - Started ZmjApplication in 9.919 seconds (JVM running for 11.323)
2020-09-24 11:39:47.564 [http-nio-19111-exec-1] INFO  o.a.c.core.ContainerBase.[Tomcat].[localhost].[/] - Initializing Spring DispatcherServlet 'dispatcherServlet'
2020-09-24 11:39:47.566 [http-nio-19111-exec-1] INFO  org.springframework.web.servlet.DispatcherServlet - Initializing Servlet 'dispatcherServlet'
2020-09-24 11:39:47.582 [http-nio-19111-exec-1] INFO  org.springframework.web.servlet.DispatcherServlet - Completed initialization in 15 ms
2020-09-24 11:39:57.424 [http-nio-19111-exec-5] INFO  com.zmj.controller.btcd.BtcController - {"result":{"txid":"37674e6832902ae3ba5d9fec145ff6771e65e1c91e60f3875c95093d8a5019f6","hash":"49f13061b8ec039921701df17614c458958c845c12d005d191598296535b3fdf","version":2,"size":183,"vsize":156,"weight":624,"locktime":0,"vin":[{"coinbase":"0230370101","sequence":4294967295}],"vout":[{"value":0.00000000,"n":0,"scriptPubKey":{"asm":"03c33c094040d579a398706bb0f6a130166b2dc108bff66d157a33cd89272518d9 OP_CHECKSIG","hex":"2103c33c094040d579a398706bb0f6a130166b2dc108bff66d157a33cd89272518d9ac","reqSigs":1,"type":"pubkey","addresses":["myQqCuwmoRdhwL2MbT4xGMx5Np61P4iBuv"]}},{"value":0.00000000,"n":1,"scriptPubKey":{"asm":"OP_RETURN aa21a9ede2f61c3f71d1defd3fa999dfa36953755c690689799962b48bebd836974e8cf9","hex":"6a24aa21a9ede2f61c3f71d1defd3fa999dfa36953755c690689799962b48bebd836974e8cf9","type":"nulldata"}}],"hex":"020000000001010000000000000000000000000000000000000000000000000000000000000000ffffffff050230370101ffffffff020000000000000000232103c33c094040d579a398706bb0f6a130166b2dc108bff66d157a33cd89272518d9ac0000000000000000266a24aa21a9ede2f61c3f71d1defd3fa999dfa36953755c690689799962b48bebd836974e8cf90120000000000000000000000000000000000000000000000000000000000000000000000000","blockhash":"614f34bd98a50d04d683b2cfe6316768364bb958f5249158f12a0dfbb32d713a","confirmations":2861,"time":1583315968,"blocktime":1583315968},"error":null,"id":"curltest"}
2020-09-24 11:43:29.909 [SpringContextShutdownHook] INFO  o.s.scheduling.concurrent.ThreadPoolTaskExecutor - Shutting down ExecutorService 'applicationTaskExecutor'
2020-09-24 11:43:37.934 [main] INFO  com.zmj.ZmjApplication - Starting ZmjApplication on gaihongweideMacBook-Air.local with PID 11005 (/Users/gaihongwei/tools/eclipse/workspace/zmj02/target/classes started by gaihongwei in /Users/gaihongwei/tools/eclipse/workspace/zmj02)
2020-09-24 11:43:37.939 [main] INFO  com.zmj.ZmjApplication - No active profile set, falling back to default profiles: default
2020-09-24 11:43:39.647 [main] WARN  org.mybatis.spring.mapper.ClassPathMapperScanner - Skipping MapperFactoryBean with name 'btcDao' and 'com.zmj.dao.btcd.BtcDao' mapperInterface. Bean already defined with the same name!
2020-09-24 11:43:39.647 [main] WARN  org.mybatis.spring.mapper.ClassPathMapperScanner - Skipping MapperFactoryBean with name 'tbCurrencyInfoDao' and 'com.zmj.dao.platform.TbCurrencyInfoDao' mapperInterface. Bean already defined with the same name!
2020-09-24 11:43:39.648 [main] WARN  org.mybatis.spring.mapper.ClassPathMapperScanner - Skipping MapperFactoryBean with name 'mainDao' and 'com.zmj.dao.orther.base.MainDao' mapperInterface. Bean already defined with the same name!
2020-09-24 11:43:39.648 [main] WARN  org.mybatis.spring.mapper.ClassPathMapperScanner - Skipping MapperFactoryBean with name 'documentarySmsDao' and 'com.zmj.dao.orther.future.DocumentarySmsDao' mapperInterface. Bean already defined with the same name!
2020-09-24 11:43:39.648 [main] WARN  org.mybatis.spring.mapper.ClassPathMapperScanner - Skipping MapperFactoryBean with name 'fexDao' and 'com.zmj.dao.orther.regular.FexDao' mapperInterface. Bean already defined with the same name!
2020-09-24 11:43:39.648 [main] WARN  org.mybatis.spring.mapper.ClassPathMapperScanner - No MyBatis mapper was found in '[com.zmj.dao]' package. Please check your configuration.
2020-09-24 11:43:39.987 [main] INFO  o.s.d.r.config.RepositoryConfigurationDelegate - Multiple Spring Data modules found, entering strict repository configuration mode!
2020-09-24 11:43:39.991 [main] INFO  o.s.d.r.config.RepositoryConfigurationDelegate - Bootstrapping Spring Data Redis repositories in DEFAULT mode.
2020-09-24 11:43:40.077 [main] INFO  o.s.d.r.config.RepositoryConfigurationDelegate - Finished Spring Data repository scanning in 58ms. Found 0 Redis repository interfaces.
2020-09-24 11:43:41.429 [main] INFO  o.s.boot.web.embedded.tomcat.TomcatWebServer - Tomcat initialized with port(s): 19111 (http)
2020-09-24 11:43:41.481 [main] INFO  org.apache.coyote.http11.Http11NioProtocol - Initializing ProtocolHandler ["http-nio-19111"]
2020-09-24 11:43:41.482 [main] INFO  org.apache.catalina.core.StandardService - Starting service [Tomcat]
2020-09-24 11:43:41.483 [main] INFO  org.apache.catalina.core.StandardEngine - Starting Servlet engine: [Apache Tomcat/9.0.37]
2020-09-24 11:43:41.780 [main] INFO  o.a.c.core.ContainerBase.[Tomcat].[localhost].[/] - Initializing Spring embedded WebApplicationContext
2020-09-24 11:43:41.781 [main] INFO  o.s.b.w.s.c.ServletWebServerApplicationContext - Root WebApplicationContext: initialization completed in 3671 ms
2020-09-24 11:43:43.797 [main] INFO  o.s.scheduling.concurrent.ThreadPoolTaskExecutor - Initializing ExecutorService 'applicationTaskExecutor'
2020-09-24 11:43:43.968 [main] INFO  o.s.b.a.web.servlet.WelcomePageHandlerMapping - Adding welcome page: class path resource [static/index.html]
2020-09-24 11:43:44.748 [main] INFO  org.apache.coyote.http11.Http11NioProtocol - Starting ProtocolHandler ["http-nio-19111"]
2020-09-24 11:43:44.811 [main] INFO  o.s.boot.web.embedded.tomcat.TomcatWebServer - Tomcat started on port(s): 19111 (http) with context path ''
2020-09-24 11:43:44.840 [main] INFO  com.zmj.ZmjApplication - Started ZmjApplication in 8.992 seconds (JVM running for 10.803)
2020-09-24 11:43:51.722 [http-nio-19111-exec-1] INFO  o.a.c.core.ContainerBase.[Tomcat].[localhost].[/] - Initializing Spring DispatcherServlet 'dispatcherServlet'
2020-09-24 11:43:51.724 [http-nio-19111-exec-1] INFO  org.springframework.web.servlet.DispatcherServlet - Initializing Servlet 'dispatcherServlet'
2020-09-24 11:43:51.740 [http-nio-19111-exec-1] INFO  org.springframework.web.servlet.DispatcherServlet - Completed initialization in 16 ms
2020-09-24 11:43:59.835 [http-nio-19111-exec-1] INFO  com.zmj.controller.btcd.BtcController - {"result":{"txid":"37674e6832902ae3ba5d9fec145ff6771e65e1c91e60f3875c95093d8a5019f6","hash":"49f13061b8ec039921701df17614c458958c845c12d005d191598296535b3fdf","version":2,"size":183,"vsize":156,"weight":624,"locktime":0,"vin":[{"coinbase":"0230370101","sequence":4294967295}],"vout":[{"value":0.00000000,"n":0,"scriptPubKey":{"asm":"03c33c094040d579a398706bb0f6a130166b2dc108bff66d157a33cd89272518d9 OP_CHECKSIG","hex":"2103c33c094040d579a398706bb0f6a130166b2dc108bff66d157a33cd89272518d9ac","reqSigs":1,"type":"pubkey","addresses":["myQqCuwmoRdhwL2MbT4xGMx5Np61P4iBuv"]}},{"value":0.00000000,"n":1,"scriptPubKey":{"asm":"OP_RETURN aa21a9ede2f61c3f71d1defd3fa999dfa36953755c690689799962b48bebd836974e8cf9","hex":"6a24aa21a9ede2f61c3f71d1defd3fa999dfa36953755c690689799962b48bebd836974e8cf9","type":"nulldata"}}],"hex":"020000000001010000000000000000000000000000000000000000000000000000000000000000ffffffff050230370101ffffffff020000000000000000232103c33c094040d579a398706bb0f6a130166b2dc108bff66d157a33cd89272518d9ac0000000000000000266a24aa21a9ede2f61c3f71d1defd3fa999dfa36953755c690689799962b48bebd836974e8cf90120000000000000000000000000000000000000000000000000000000000000000000000000","blockhash":"614f34bd98a50d04d683b2cfe6316768364bb958f5249158f12a0dfbb32d713a","confirmations":2861,"time":1583315968,"blocktime":1583315968},"error":null,"id":"curltest"}
2020-09-24 11:47:29.907 [SpringContextShutdownHook] INFO  o.s.scheduling.concurrent.ThreadPoolTaskExecutor - Shutting down ExecutorService 'applicationTaskExecutor'
2020-09-24 12:18:57.463 [main] INFO  com.zmj.ZmjApplication - Starting ZmjApplication on gaihongweideMacBook-Air.local with PID 11050 (/Users/gaihongwei/tools/eclipse/workspace/zmj02/target/classes started by gaihongwei in /Users/gaihongwei/tools/eclipse/workspace/zmj02)
2020-09-24 12:18:57.474 [main] INFO  com.zmj.ZmjApplication - No active profile set, falling back to default profiles: default
2020-09-24 12:18:59.190 [main] WARN  org.mybatis.spring.mapper.ClassPathMapperScanner - Skipping MapperFactoryBean with name 'btcDao' and 'com.zmj.dao.btcd.BtcDao' mapperInterface. Bean already defined with the same name!
2020-09-24 12:18:59.190 [main] WARN  org.mybatis.spring.mapper.ClassPathMapperScanner - Skipping MapperFactoryBean with name 'tbCurrencyInfoDao' and 'com.zmj.dao.platform.TbCurrencyInfoDao' mapperInterface. Bean already defined with the same name!
2020-09-24 12:18:59.190 [main] WARN  org.mybatis.spring.mapper.ClassPathMapperScanner - Skipping MapperFactoryBean with name 'mainDao' and 'com.zmj.dao.orther.base.MainDao' mapperInterface. Bean already defined with the same name!
2020-09-24 12:18:59.191 [main] WARN  org.mybatis.spring.mapper.ClassPathMapperScanner - Skipping MapperFactoryBean with name 'documentarySmsDao' and 'com.zmj.dao.orther.future.DocumentarySmsDao' mapperInterface. Bean already defined with the same name!
2020-09-24 12:18:59.191 [main] WARN  org.mybatis.spring.mapper.ClassPathMapperScanner - Skipping MapperFactoryBean with name 'fexDao' and 'com.zmj.dao.orther.regular.FexDao' mapperInterface. Bean already defined with the same name!
2020-09-24 12:18:59.191 [main] WARN  org.mybatis.spring.mapper.ClassPathMapperScanner - No MyBatis mapper was found in '[com.zmj.dao]' package. Please check your configuration.
2020-09-24 12:18:59.606 [main] INFO  o.s.d.r.config.RepositoryConfigurationDelegate - Multiple Spring Data modules found, entering strict repository configuration mode!
2020-09-24 12:18:59.616 [main] INFO  o.s.d.r.config.RepositoryConfigurationDelegate - Bootstrapping Spring Data Redis repositories in DEFAULT mode.
2020-09-24 12:18:59.728 [main] INFO  o.s.d.r.config.RepositoryConfigurationDelegate - Finished Spring Data repository scanning in 52ms. Found 0 Redis repository interfaces.
2020-09-24 12:19:01.238 [main] INFO  o.s.boot.web.embedded.tomcat.TomcatWebServer - Tomcat initialized with port(s): 19111 (http)
2020-09-24 12:19:01.266 [main] INFO  org.apache.coyote.http11.Http11NioProtocol - Initializing ProtocolHandler ["http-nio-19111"]
2020-09-24 12:19:01.266 [main] INFO  org.apache.catalina.core.StandardService - Starting service [Tomcat]
2020-09-24 12:19:01.267 [main] INFO  org.apache.catalina.core.StandardEngine - Starting Servlet engine: [Apache Tomcat/9.0.37]
2020-09-24 12:19:01.620 [main] INFO  o.a.c.core.ContainerBase.[Tomcat].[localhost].[/] - Initializing Spring embedded WebApplicationContext
2020-09-24 12:19:01.621 [main] INFO  o.s.b.w.s.c.ServletWebServerApplicationContext - Root WebApplicationContext: initialization completed in 3804 ms
2020-09-24 12:19:03.399 [main] INFO  o.s.scheduling.concurrent.ThreadPoolTaskExecutor - Initializing ExecutorService 'applicationTaskExecutor'
2020-09-24 12:19:03.661 [main] INFO  o.s.b.a.web.servlet.WelcomePageHandlerMapping - Adding welcome page: class path resource [static/index.html]
2020-09-24 12:19:04.824 [main] INFO  org.apache.coyote.http11.Http11NioProtocol - Starting ProtocolHandler ["http-nio-19111"]
2020-09-24 12:19:04.890 [main] INFO  o.s.boot.web.embedded.tomcat.TomcatWebServer - Tomcat started on port(s): 19111 (http) with context path ''
2020-09-24 12:19:04.922 [main] INFO  com.zmj.ZmjApplication - Started ZmjApplication in 9.231 seconds (JVM running for 10.58)
2020-09-24 12:20:32.779 [http-nio-19111-exec-1] INFO  o.a.c.core.ContainerBase.[Tomcat].[localhost].[/] - Initializing Spring DispatcherServlet 'dispatcherServlet'
2020-09-24 12:20:32.783 [http-nio-19111-exec-1] INFO  org.springframework.web.servlet.DispatcherServlet - Initializing Servlet 'dispatcherServlet'
2020-09-24 12:20:32.828 [http-nio-19111-exec-1] INFO  org.springframework.web.servlet.DispatcherServlet - Completed initialization in 44 ms
2020-09-24 12:20:39.118 [http-nio-19111-exec-1] INFO  com.zmj.controller.btcd.BtcController - {"result":{"txid":"37674e6832902ae3ba5d9fec145ff6771e65e1c91e60f3875c95093d8a5019f6","hash":"49f13061b8ec039921701df17614c458958c845c12d005d191598296535b3fdf","version":2,"size":183,"vsize":156,"weight":624,"locktime":0,"vin":[{"coinbase":"0230370101","sequence":4294967295}],"vout":[{"value":0.00000000,"n":0,"scriptPubKey":{"asm":"03c33c094040d579a398706bb0f6a130166b2dc108bff66d157a33cd89272518d9 OP_CHECKSIG","hex":"2103c33c094040d579a398706bb0f6a130166b2dc108bff66d157a33cd89272518d9ac","reqSigs":1,"type":"pubkey","addresses":["myQqCuwmoRdhwL2MbT4xGMx5Np61P4iBuv"]}},{"value":0.00000000,"n":1,"scriptPubKey":{"asm":"OP_RETURN aa21a9ede2f61c3f71d1defd3fa999dfa36953755c690689799962b48bebd836974e8cf9","hex":"6a24aa21a9ede2f61c3f71d1defd3fa999dfa36953755c690689799962b48bebd836974e8cf9","type":"nulldata"}}],"hex":"020000000001010000000000000000000000000000000000000000000000000000000000000000ffffffff050230370101ffffffff020000000000000000232103c33c094040d579a398706bb0f6a130166b2dc108bff66d157a33cd89272518d9ac0000000000000000266a24aa21a9ede2f61c3f71d1defd3fa999dfa36953755c690689799962b48bebd836974e8cf90120000000000000000000000000000000000000000000000000000000000000000000000000","blockhash":"614f34bd98a50d04d683b2cfe6316768364bb958f5249158f12a0dfbb32d713a","confirmations":2861,"time":1583315968,"blocktime":1583315968},"error":null,"id":"curltest"}
2020-09-24 12:22:24.909 [SpringContextShutdownHook] INFO  o.s.scheduling.concurrent.ThreadPoolTaskExecutor - Shutting down ExecutorService 'applicationTaskExecutor'
2020-09-24 20:08:04.764 [main] INFO  com.zmj.ZmjApplication - Starting ZmjApplication on gaihongweideMacBook-Air.local with PID 12342 (/Users/gaihongwei/tools/eclipse/workspace/zmj02/target/classes started by gaihongwei in /Users/gaihongwei/tools/eclipse/workspace/zmj02)
2020-09-24 20:08:04.769 [main] INFO  com.zmj.ZmjApplication - No active profile set, falling back to default profiles: default
2020-09-24 20:08:07.571 [main] WARN  org.mybatis.spring.mapper.ClassPathMapperScanner - Skipping MapperFactoryBean with name 'btcDao' and 'com.zmj.dao.btcd.BtcDao' mapperInterface. Bean already defined with the same name!
2020-09-24 20:08:07.572 [main] WARN  org.mybatis.spring.mapper.ClassPathMapperScanner - Skipping MapperFactoryBean with name 'tbCurrencyInfoDao' and 'com.zmj.dao.platform.TbCurrencyInfoDao' mapperInterface. Bean already defined with the same name!
2020-09-24 20:08:07.572 [main] WARN  org.mybatis.spring.mapper.ClassPathMapperScanner - Skipping MapperFactoryBean with name 'mainDao' and 'com.zmj.dao.orther.base.MainDao' mapperInterface. Bean already defined with the same name!
2020-09-24 20:08:07.573 [main] WARN  org.mybatis.spring.mapper.ClassPathMapperScanner - Skipping MapperFactoryBean with name 'documentarySmsDao' and 'com.zmj.dao.orther.future.DocumentarySmsDao' mapperInterface. Bean already defined with the same name!
2020-09-24 20:08:07.573 [main] WARN  org.mybatis.spring.mapper.ClassPathMapperScanner - Skipping MapperFactoryBean with name 'fexDao' and 'com.zmj.dao.orther.regular.FexDao' mapperInterface. Bean already defined with the same name!
2020-09-24 20:08:07.573 [main] WARN  org.mybatis.spring.mapper.ClassPathMapperScanner - No MyBatis mapper was found in '[com.zmj.dao]' package. Please check your configuration.
2020-09-24 20:08:08.145 [main] INFO  o.s.d.r.config.RepositoryConfigurationDelegate - Multiple Spring Data modules found, entering strict repository configuration mode!
2020-09-24 20:08:08.153 [main] INFO  o.s.d.r.config.RepositoryConfigurationDelegate - Bootstrapping Spring Data Redis repositories in DEFAULT mode.
2020-09-24 20:08:08.270 [main] INFO  o.s.d.r.config.RepositoryConfigurationDelegate - Finished Spring Data repository scanning in 60ms. Found 0 Redis repository interfaces.
2020-09-24 20:08:09.943 [main] INFO  o.s.boot.web.embedded.tomcat.TomcatWebServer - Tomcat initialized with port(s): 19111 (http)
2020-09-24 20:08:09.975 [main] INFO  org.apache.coyote.http11.Http11NioProtocol - Initializing ProtocolHandler ["http-nio-19111"]
2020-09-24 20:08:09.977 [main] INFO  org.apache.catalina.core.StandardService - Starting service [Tomcat]
2020-09-24 20:08:09.978 [main] INFO  org.apache.catalina.core.StandardEngine - Starting Servlet engine: [Apache Tomcat/9.0.37]
2020-09-24 20:08:10.275 [main] INFO  o.a.c.core.ContainerBase.[Tomcat].[localhost].[/] - Initializing Spring embedded WebApplicationContext
2020-09-24 20:08:10.276 [main] INFO  o.s.b.w.s.c.ServletWebServerApplicationContext - Root WebApplicationContext: initialization completed in 5274 ms
2020-09-24 20:08:12.131 [main] INFO  o.s.scheduling.concurrent.ThreadPoolTaskExecutor - Initializing ExecutorService 'applicationTaskExecutor'
2020-09-24 20:08:12.456 [main] INFO  o.s.b.a.web.servlet.WelcomePageHandlerMapping - Adding welcome page: class path resource [static/index.html]
2020-09-24 20:08:13.480 [main] INFO  org.apache.coyote.http11.Http11NioProtocol - Starting ProtocolHandler ["http-nio-19111"]
2020-09-24 20:08:13.545 [main] INFO  o.s.boot.web.embedded.tomcat.TomcatWebServer - Tomcat started on port(s): 19111 (http) with context path ''
2020-09-24 20:08:13.566 [main] INFO  com.zmj.ZmjApplication - Started ZmjApplication in 10.306 seconds (JVM running for 11.918)
2020-09-24 20:12:21.251 [http-nio-19111-exec-1] INFO  o.a.c.core.ContainerBase.[Tomcat].[localhost].[/] - Initializing Spring DispatcherServlet 'dispatcherServlet'
2020-09-24 20:12:21.253 [http-nio-19111-exec-1] INFO  org.springframework.web.servlet.DispatcherServlet - Initializing Servlet 'dispatcherServlet'
2020-09-24 20:12:21.270 [http-nio-19111-exec-1] INFO  org.springframework.web.servlet.DispatcherServlet - Completed initialization in 17 ms
2020-09-24 20:12:29.184 [http-nio-19111-exec-4] INFO  com.zmj.controller.btcd.BtcController - {"result":"mgL8egPapT1Lea5eBFvYw6bTaCGFcxtuXG","error":null,"id":"curltest"}
2020-09-24 20:13:58.770 [SpringContextShutdownHook] INFO  o.s.scheduling.concurrent.ThreadPoolTaskExecutor - Shutting down ExecutorService 'applicationTaskExecutor'
